:020000040800F2
:1000000000800120859F0108292100082B2100087C
:100010002D2100082F2100083121000800000000D8
:100020000000000000000000000000003321000874
:1000300035210008000000003721000839210008A0
:10004000D59F0108D59F0108D59F0108D59F0108BC
:10005000D59F0108D59F0108D59F0108D59F0108AC
:10006000D59F0108D59F0108D59F0108D59F01089C
:10007000D59F0108D59F0108D59F0108D59F01088C
:10008000D59F0108D59F0108D59F0108D59F01087C
:10009000D59F0108D59F0108D59F0108D59F01086C
:1000A000D59F0108D59F0108D59F0108D59F01085C
:1000B000D59F0108D59F0108D59F0108D59F01084C
:1000C000D59F0108D59F0108D59F0108D59F01083C
:1000D000D59F0108D59F0108D59F0108D59F01082C
:1000E000D59F0108D59F0108D59F0108D59F01081C
:1000F000D59F0108D59F0108D59F0108D59F01080C
:10010000D59F0108D59F0108D59F0108D59F0108FB
:10011000D59F0108D59F01083D210008D59F010802
:10012000D59F0108D59F0108D59F0108D59F0108DB
:10013000D59F0108D59F0108D59F0108D59F0108CB
:10014000D59F0108D59F0108D59F010859210008B6
:10015000D59F0108D59F0108D59F0108D59F0108AB
:10016000D59F0108D59F0108D59F0108D59F01089B
:10017000D59F0108D59F0108D59F01080000000008
:08018000D59F0108D59F01087D
:1001900010B5054C237833B9044B13B10448AFF3C1
:1001A00000800123237010BD902300200000000078
:1001B00098CF010808B5034B1BB103490348AFF3BF
:1001C000008008BD000000009423002098CF0108A3
:1001D000034613F8012B002AFBD1181A0138704787
:1001E00001F0FF01102A2BDB10F0070F08D010F8E8
:1001F000013B013A8B422DD010F0070F42B3F6D1EC
:10020000F0B441EA012141EA014122F007047FF004
:1002100000070023F0E80256083C85EA010586EA5B
:10022000010685FA47F5A3FA87F586FA47F6A5FA97
:1002300087F68EB9EED1F0BC01F0FF0102F00702A3
:1002400032B110F8013B013A83EA010313B1F8D14E
:100250000020704701387047002D06BF354603382F
:10026000073815F0010F07D1013015F4807F02BF68
:10027000013015F4C03F0130F0BC0138704700BFB9
:1002800081F0004102E000BF83F0004330B54FEA47
:1002900041044FEA430594EA050F08BF90EA020FB4
:1002A0001FBF54EA000C55EA020C7FEA645C7FEA47
:1002B000655C00F0E2804FEA5454D4EB5555B8BF6A
:1002C0006D420CDD2C4480EA020281EA030382EADB
:1002D000000083EA010180EA020281EA0303362D6D
:1002E00088BF30BD11F0004F4FEA01314FF4801C40
:1002F0004CEA113102D0404261EB410113F0004F52
:100300004FEA03334CEA133302D0524263EB430308
:1003100094EA050F00F0A780A4F10104D5F1200EA6
:100320000DDB02FA0EFC22FA05F2801841F1000101
:1003300003FA0EF2801843FA05F359410EE0A5F1D5
:1003400020050EF1200E012A03FA0EFC28BF4CF006
:10035000020C43FA05F3C01851EBE37101F00045BC
:1003600007D54FF0000EDCF1000C7EEB00006EEBC9
:100370000101B1F5801F1BD3B1F5001F0CD3490853
:100380005FEA30004FEA3C0C04F101044FEA4452AA
:1003900012F5800F80F09A80BCF1004F08BF5FEA31
:1003A000500C50F1000041EB045141EA050130BD11
:1003B0005FEA4C0C404141EB010111F4801FA4F1B4
:1003C0000104E9D191F0000F04BF01460020B1FA09
:1003D00081F308BF2033A3F10B03B3F120020CDA41
:1003E0000C3208DD02F1140CC2F10C0201FA0CF01F
:1003F00021FA02F10CE002F11402D8BFC2F1200C84
:1004000001FA02F120FA0CFCDCBF41EA0C01904039
:10041000E41AA2BF01EB0451294330BD6FEA040482
:100420001F3C1CDA0C340EDC04F11404C4F120026D
:1004300020FA04F001FA02F340EA030021FA04F37F
:1004400045EA030130BDC4F10C04C4F1200220FAD6
:1004500002F001FA04F340EA0300294630BD21FA14
:1004600004F0294630BD94F0000F83F4801306BFDA
:1004700081F480110134013D4EE77FEA645C18BFCE
:100480007FEA655C29D094EA050F08BF90EA020F65
:1004900005D054EA000C04BF1946104630BD91EA5D
:1004A000030F1EBF0021002030BD5FEA545C05D160
:1004B0004000494128BF41F0004130BD14F580049F
:1004C0003CBF01F5801130BD01F0004545F0FE4113
:1004D00041F470014FF0000030BD7FEA645C1ABF48
:1004E000194610467FEA655C1CBF0B46024650EA7F
:1004F000013406BF52EA033591EA030F41F40021AB
:1005000030BD00BF90F0000F04BF0021704730B530
:100510004FF4806404F132044FF000054FF0000105
:1005200050E700BF90F0000F04BF0021704730B5C6
:100530004FF4806404F1320410F0004548BF40429B
:100540004FF000013EE700BF42004FEAE2014FEAF0
:1005500031014FEA02701FBF12F07F4393F07F4FCB
:1005600081F06051704792F0000F14BF93F07F4FFD
:10057000704730B54FF4607401F0004521F0004140
:1005800020E700BF50EA010208BF704730B54FF0C6
:1005900000050AE050EA010208BF704730B511F0CB
:1005A000004502D5404261EB41014FF4806404F103
:1005B00032045FEA915C3FF4DCAE4FF003025FEA85
:1005C000DC0C18BF03325FEADC0C18BF033202EB0D
:1005D000DC02C2F1200300FA03FC20FA02F001FA67
:1005E00003FE40EA0E0021FA02F11444C1E600BF06
:1005F00070B54FF0FF0C4CF4E06C1CEA11541DBFB9
:100600001CEA135594EA0C0F95EA0C0F00F0DEF883
:100610002C4481EA030621EA4C5123EA4C5350EA68
:10062000013518BF52EA033541F4801143F48013B9
:1006300038D0A0FB02CE4FF00005E1FB02E506F04A
:100640000042E0FB03E54FF00006E1FB03569CF09F
:10065000000F18BF4EF0010EA4F1FF04B6F5007FA5
:1006600064F5407404D25FEA4E0E6D4146EB060617
:1006700042EAC62141EA55514FEAC52040EA5E50A0
:100680004FEACE2EB4F1FD0C88BFBCF5E06F1ED84A
:10069000BEF1004F08BF5FEA500E50F1000041EB81
:1006A000045170BD06F0004646EA010140EA02002E
:1006B00081EA0301B4EB5C04C2BFD4EB0C0541EA50
:1006C000045170BD41F480114FF0000E013C00F365
:1006D000AB8014F1360FDEBF002001F0004170BD89
:1006E000C4F10004203C35DA0C341BDC04F11404A2
:1006F000C4F1200500FA05F320FA04F001FA05F22E
:1007000040EA020001F0004221F0004110EBD370FA
:1007100021FA04F642EB06015EEA430E08BF20EA26
:10072000D37070BDC4F10C04C4F1200500FA04F3C9
:1007300020FA05F001FA04F240EA020001F000415B
:1007400010EBD37041F100015EEA430E08BF20EACE
:10075000D37070BDC4F1200500FA05F24EEA020E16
:1007600020FA04F301FA05F243EA020321FA04F045
:1007700001F0004121FA04F220EA020000EBD370FC
:100780005EEA430E08BF20EAD37070BD94F0000FFC
:100790000FD101F00046400041EB010111F4801F30
:1007A00008BF013CF7D041EA060195F0000F18BFE1
:1007B000704703F00046520043EB030313F4801F1D
:1007C00008BF013DF7D043EA0603704794EA0C0FD7
:1007D0000CEA135518BF95EA0C0F0CD050EA4106ED
:1007E00018BF52EA4306D1D181EA030101F000416A
:1007F0004FF0000070BD50EA410606BF1046194692
:1008000052EA430619D094EA0C0F02D150EA01369D
:1008100013D195EA0C0F05D152EA03361CBF1046DE
:1008200019460AD181EA030101F0004141F0FE417D
:1008300041F470014FF0000070BD41F0FE4141F401
:10084000780170BD70B54FF0FF0C4CF4E06C1CEA01
:1008500011541DBF1CEA135594EA0C0F95EA0C0FB6
:1008600000F0A7F8A4EB050481EA030E52EA033571
:100870004FEA013100F088804FEA03334FF0805592
:1008800045EA131343EA12634FEA022245EA1115BF
:1008900045EA10654FEA00260EF000419D4208BF70
:1008A000964244F1FD0404F5407402D25B084FEA1D
:1008B0003202B61A65EB03055B084FEA32024FF4C9
:1008C00080104FF4002CB6EB020E75EB030E22BF26
:1008D000B61A754640EA0C005B084FEA3202B6EBE6
:1008E000020E75EB030E22BFB61A754640EA5C0095
:1008F0005B084FEA3202B6EB020E75EB030E22BF25
:10090000B61A754640EA9C005B084FEA3202B6EB25
:10091000020E75EB030E22BFB61A754640EADC00E4
:1009200055EA060E18D04FEA051545EA16754FEA46
:1009300006164FEAC30343EA52734FEAC2025FEA64
:100940001C1CC0D111F4801F0BD141EA00014FF0F3
:1009500000004FF0004CB6E711F4801F04BF0143C4
:100960000020B4F1FD0C88BFBCF5E06F3FF6AFAEE0
:10097000B5EB030C04BFB6EB020C5FEA500C50F170
:10098000000041EB045170BD0EF0004E4EEA1131F3
:1009900014EB5C04C2BFD4EB0C0541EA045170BDFA
:1009A00041F480114FF0000E013C90E645EA060E3E
:1009B0008DE60CEA135594EA0C0F08BF95EA0C0F6C
:1009C0003FF43BAF94EA0C0F0AD150EA01347FF4B4
:1009D00034AF95EA0C0F7FF425AF104619462CE78B
:1009E00095EA0C0F06D152EA03353FF4FDAE1046EE
:1009F000194622E750EA410618BF52EA43067FF43F
:100A0000C5AE50EA41047FF40DAF52EA43057FF4CE
:100A1000EBAE12E74FF0FF3C06E000BF4FF0010CD9
:100A200002E000BF4FF0010C4DF804CD4FEA410C3D
:100A30007FEA6C5C4FEA430C18BF7FEA6C5C1BD00A
:100A400001B050EA410C0CBF52EA430C91EA030F8B
:100A500002BF90EA020F0020704710F1000F91EAE8
:100A6000030F58BF994208BF90422CBFD8176FEAB6
:100A7000E37040F0010070474FEA410C7FEA6C5C84
:100A800002D150EA013C07D14FEA430C7FEA6C5C8B
:100A9000D6D152EA033CD3D05DF8040B704700BFB7
:100AA0008446104662468C461946634600E000BF05
:100AB00001B5FFF7B7FF002848BF10F1000F01BDD7
:100AC0004DF808EDFFF7F4FF0CBF012000205DF8A2
:100AD00008FB00BF4DF808EDFFF7EAFF34BF012027
:100AE00000205DF808FB00BF4DF808EDFFF7E0FFC0
:100AF00094BF012000205DF808FB00BF4DF808ED11
:100B0000FFF7CEFF94BF012000205DF808FB00BF77
:100B10004DF808EDFFF7C4FF34BF012000205DF859
:100B200008FB00BF4FEA410C7FEA6C5C02D150EA3F
:100B3000013C0AD14FEA430C7FEA6C5C02D152EAD5
:100B4000033C02D14FF0000070474FF001007047A6
:100B50004FEA410212F5001215D211D56FF47873E5
:100B6000B3EB625212D94FEAC12343F0004343EA88
:100B7000505311F0004F23FA02F018BF4042704763
:100B80004FF00000704750EA013005D111F00040ED
:100B900008BF6FF0004070474FF00000704700BF83
:100BA00053B94AB9002908BF00281CBF4FF0FF31D4
:100BB0004FF0FF3000F07AB9ADF1080C6DE904CECA
:100BC00000F006F8DDF804E0DDE9022304B0704728
:100BD0002DE9F0478C460D460446089E002B51D166
:100BE0008A4217466DD9B2FA82FEBEF1000F0BD0D1
:100BF000CEF1200C01FA0EF520FA0CFC02FA0EF7E9
:100C00004CEA050C00FA0EF44FEA174A250CBCFB1F
:100C1000FAF81FFA87F90AFB18CC45EA0C4508FBDD
:100C200009F3AB420AD9ED1908F1FF3280F02381B4
:100C3000AB4240F22081A8F102083D44ED1AA4B273
:100C4000B5FBFAF00AFB105544EA054400FB09F92C
:100C5000A14509D9E41900F1FF3380F00A81A145CB
:100C600040F2078102383C44A4EB090440EA084002
:100C70000021002E61D024FA0EF40023346073604A
:100C8000BDE8F0878B4207D9002E54D0002186E8BA
:100C900021000846BDE8F087B3FA83F1002940F04F
:100CA0008E80AB4202D3824200F2FA80841A65EB56
:100CB00003050120AC46002E3FD086E81010BDE8A9
:100CC000F08712B90127B7FBF2F7B7FA87FEBEF13A
:100CD000000F34D1EB1B3A0C1FFA87FC0121B3FB48
:100CE000F2F8250C02FB183345EA03450CFB08F328
:100CF000AB4207D9ED1908F1FF3002D2AB4200F246
:100D0000D1808046ED1AA3B2B5FBF2F002FB10557C
:100D100043EA05440CFB00FCA44507D9E41900F1A3
:100D2000FF3302D2A44500F2B8801846A4EB0C04AD
:100D300040EA08409DE731463046BDE8F087CEF1F5
:100D4000200405FA0EF307FA0EF720FA04F83A0C1D
:100D500025FA04F448EA0308B4FBF2F14FEA184517
:100D600002FB11441FFA87FC45EA044501FB0CF322
:100D7000AB4200FA0EF409D9ED1901F1FF3080F011
:100D80008A80AB4240F2878002393D44EB1A1FFA59
:100D900088F5B3FBF2F002FB103345EA034500FB94
:100DA0000CF3AB4207D9ED1900F1FF386FD2AB421B
:100DB0006DD902383D44EB1A40EA01418FE7C1F199
:100DC000200722FA07F88B4005FA01F448EA0303EA
:100DD00020FA07FE4FEA134CFD404EEA040EB5FB25
:100DE000FCF94FEA1E440CFB19551FFA83F844EA3C
:100DF000054509FB08F4AC4202FA01F200FA01FAD7
:100E000008D9ED1809F1FF3043D2AC4241D9A9F11C
:100E100002091D442D1B1FFA8EFEB5FBFCF00CFBD6
:100E200010554EEA054400FB08F8A04507D9E41820
:100E300000F1FF3529D2A04527D902381C4440EAE9
:100E40000940A4EB0804A0FB02894C45C6464D4668
:100E500015D312D056B1BAEB0E0364EB050404FAB5
:100E600007F7CB401F43CC40376074600021BDE8DA
:100E7000F0871846F8E69046E0E6C245EAD2B8EBBD
:100E8000020E69EB03050138E4E72846D7E7404640
:100E900091E78146BEE7014678E702383C4445E7E2
:100EA000084608E7A8F102083D442BE7704700BF59
:100EB00007B502A94FF0FF3301F8010D01220348E5
:100EC00003F06BFF03B05DF804FB00BF88B40020A3
:100ED00010B5002204468021034802F07FF8204626
:100EE000BDE81040FFF7E4BF0004004810B5012240
:100EF00004468021034802F071F82046BDE8104006
:100F0000FFF7D6BF0004004810B500220446202198
:100F1000154802F063F83620FFF7DAFF022C134A77
:100F2000134B11D0032C4FF0800113D0012C16D19C
:100F3000A02010801980FFF7D9FF012220210A4844
:100F4000BDE8104002F04AB8A021118080221A802A
:100F50006020F0E71180A0221A80C020EBE711800A
:100F6000A0221A800020E6E7000400488CB100208F
:100F70008EB1002010B5454C01222046202102F000
:100F80002DF801224021204602F028F8052001F02A
:100F9000BBFA00224021204602F020F8052001F093
:100FA000B3FA01224021204602F018F8052001F092
:100FB000ABFA00222021204602F010F81120FFF7A2
:100FC00087FF192001F0A0FAB120FFF781FF01226D
:100FD0008021204602F002F80520FFF769FF3C203F
:100FE000FFF766FF3C20FFF763FFB220FFF770FFBB
:100FF00001228021204601F0F1FF0520FFF758FF74
:101000003C20FFF755FF3C20FFF752FFB320FFF7CE
:101010005FFF01228021204601F0E0FF0520FFF75D
:1010200047FF3C20FFF744FF3C20FFF741FF05202E
:10103000FFF73EFF3C20FFF73BFF3C20FFF738FF68
:10104000B420FFF745FF0320FFF750FF3A20FFF7DA
:101050003FFF0520FFF74AFF2020FFF739FF13204D
:10106000FFF736FF2620FFF733FF0120FFF73EFF93
:101070002920FFF72DFF20460122202101F0AEFF9D
:101080000220BDE81040FFF73FBF00BF000400484A
:101090002DE9F041194E80462A201C460D46174680
:1010A000FFF716FF01228021304601F097FF4FEA3B
:1010B0001820FFF7FDFE5FFA88F0FFF7F9FE380A07
:1010C000FFF7F6FEF8B2FFF7F3FE2B20FFF700FF65
:1010D00001228021304601F081FF280AFFF7E8FE57
:1010E000E8B2FFF7E5FE200AFFF7E2FEE0B2FFF705
:1010F000DFFE2C20BDE8F041FFF7EABE0004004807
:101100002DE9F041174C184D002220214FEA1028FC
:10111000C6B2164801F062FF23882A880021013BED
:10112000013A08469BB292B2FFF7B2FF012280213A
:101130000E4801F053FF002729882388BAB24B4399
:101140009A4207F1010706DB012220210748BDE88A
:10115000F04101F043BF4046FFF7AAFE3046FFF7DB
:10116000A7FEE9E78EB100208CB100200004004802
:10117000F8B5B1F90030B1F904401746E41AB1F9F5
:101180000220B1F906309B1A01330E4600222021BD
:10119000054601342C4814FB03F401F01FFF2A20FC
:1011A000FFF796FE01228021274801F017FF707893
:1011B000FFF77EFE3078FFF77BFE7079FFF778FE51
:1011C0003079FFF775FE2B20FFF782FE0122802188
:1011D0001D4801F003FFF078FFF76AFEB078FFF7D3
:1011E00067FEF079FFF764FEB079FFF761FE2C200F
:1011F000FFF76EFE01221448802101F0EFFE134834
:10120000A4B2002293B29C4202F1010212DC621EDF
:1012100052004FF0FF3392B20C490D4803F0BDFD70
:1012200009480122202101F0D9FE2846BDE8F840F6
:1012300013F032BA3988090A00F8131000EB43039F
:1012400037F8021B5970DDE700040048AC2300208A
:1012500088B40020072907D8044B602202FB003025
:10126000014400238B728B70704700BFA8B100202F
:101270002DE9F84300250D4C80462E465FFA85F98E
:101280006670267084F81280E67466610027F9B2F1
:1012900048460137FFF7DEFF082FF8D10135062D4C
:1012A00004F16004EAD1BDE8F88300BFA8B10020D2
:1012B000F8B50C4E0F4660214143002405467018D6
:1012C00082F00102745444704261E1B22846013454
:1012D000FFF7C0FF082CF8D1602303FB0565EF740E
:1012E000F8BD00BFA8B1002008B5042819D8DFE870
:1012F00000F0030C0F1215004FF480510A4801F062
:1013000067FEB0FA80F0400908BD4FF40051F5E7E0
:101310004FF48041F2E74FF40041EFE7102103481A
:10132000EDE7002008BD00BF0004004800080048A9
:1013300030B50C4B93F8802093F88140511C01F09C
:1013400007018C420BD003EB02140022855CA554EC
:101350000132102AFAD183F88010012030BD00201C
:1013600030BD00BFAC3300207FB50446424EFFF7CE
:10137000BBFF60226243B318B25CD97C5870C907C6
:1013800021D510F0010111D010238DF800308DF817
:101390000140052368468DF80230FFF7C9FF60233E
:1013A0005C4333195B78335504B070BDD307F6D571
:1013B00001222046FFF77CFF10238DF800308DF8C6
:1013C00001400623E6E74240D50720D501229A7264
:1013D000024007D1596911B15A619A7202E09A78B4
:1013E00001329A70602505FB0465AA78022A15D996
:1013F00010238DF80030684604238DF802308DF8F4
:101400000140FFF795FF0023AB70AB72C7E79A7AF4
:10141000511EC9B2FD29E5D80132DEE7AB7A032BB4
:10142000BDD9C10714D41023022A8DF800306846B4
:101430000CBF032301238DF802308DF80140FFF724
:1014400077FF602303FB046300229A709A72A6E779
:101450000A2BA4D910238DF80030684602238DF89A
:1014600002308DF80140FFF763FF0023AB70AB72D1
:1014700001236B6193E700BFA8B1002010B50024E1
:10148000E0B20134FFF770FF062CF9D110BD000067
:101490000D4B93F8811093F88020914212D00022D6
:1014A00093F8811003EB0111895C81540132102AF9
:1014B000F6D193F88120013202F0070283F88120EF
:1014C0000120704700207047AC330020034B0022FE
:1014D00083F8812083F88020704700BFAC33002060
:1014E0001FB56846FFF7D4FFC8B101F007F84C4BB1
:1014F00018604C4B1B680E2B11D8DFE803F0081363
:101500001C252E374049525B646D767F88009DF81C
:1015100001209DF802109DF8000006F02FFF05B095
:101520005DF804FB9DF801209DF802109DF8000075
:101530000DF0E4F8F3E79DF801209DF802109DF806
:1015400000000AF07BF8EAE79DF801209DF8021000
:101550009DF8000009F006FBE1E79DF801209DF8E9
:1015600002109DF8000009F05BFBD8E79DF8012010
:101570009DF802109DF8000009F0B4FBCFE79DF83C
:1015800001209DF802109DF800000CF0DFFDC6E779
:101590009DF801209DF802109DF800000CF03CFE23
:1015A000BDE79DF801209DF802109DF800000CF0A9
:1015B0009BFEB4E79DF801209DF802109DF8000005
:1015C0000BF024FEABE79DF801209DF802109DF87A
:1015D00000000AF081FAA2E79DF801209DF80210B0
:1015E0009DF800000BF034F899E79DF801209DF874
:1015F00002109DF800000BF027FB90E79DF80120FA
:101600009DF802109DF800000AF05AFC87E79DF84B
:1016100001209DF802109DF800000AF029FE7EE7E7
:10162000384E00203834002000B5C1B00A460146CB
:1016300068461AF019F800280FDD6846FEF7C8FD65
:101640004FF0FF3382B26946064804F010FC0A20CE
:1016500000F05AFF41B05DF804FB4FF0FF330E225B
:101660000149F1E774B50020F0CF01080FB407B5C8
:1016700004A951F8040B0191FFF7D6FF03B05DF800
:1016800004EB04B0704700002DE9F041B8B0142518
:101690004422002105A818F012FF2A4600216846BE
:1016A00018F00DFF0021882216A818F008FF02F09C
:1016B000BFF9254AD2F8903023F01803C2F89030D1
:1016C000052302240126032705934FF007084FF452
:1016D000A0230DEB050006931295079600250F94A5
:1016E00010971196CDF84C801494159402F0FCFAE2
:1016F00004210F2368468DE8880002950395049520
:1017000002F054FD114B16934FF0805334934FF475
:10171000807337934FF0806331930C23199316A88D
:101720004FF088731D9325952A9517971896CDF835
:1017300068801B941C9402F023FF4FF4007002F0A9
:1017400087F938B0BDE8F081001002404260020025
:101750002DE9804899B000F0AFFEFFF795FF142205
:1017600000210FA818F0ABFEB94BBA4FDA6CBA4E95
:10177000DFF824A3DFF824B342F00402DA64DA6C61
:1017800002F004020392039ADA6C42F08002DA64F7
:10179000DA6C02F080020492049ADA6C42F00102E0
:1017A000DA64DA6C02F001020592059ADA6C42F012
:1017B0000202DA64DA6C02F002020692069ADA6C2D
:1017C00042F00802DA64DB6C03F00803079300229E
:1017D00020214FF09040079B01F000FC01220421E2
:1017E0009E4801F0FBFB0122E0219D4801F0F6FB41
:1017F0004FF4005301250F930FA99A4B9A48109369
:101800000024119501F008FB20230FA94FF0904010
:101810004FF010090F9310951194129401F0FCFAF7
:101820000FA99148CDF83C901094119501F0F4FA6D
:101830004FF214030FA98A480F934FF00408109435
:10184000119501F0E9FA0FA98448109511941294AA
:10185000CDF83C8001F0E0FAE0230FA980480F9317
:1018600010951194129401F0D7FA804ABC604FF49D
:10187000E13387E80C0038460C23FC603C617B6157
:10188000BC61FC613C627C6204F078FB784B794976
:10189000B460304686E80A00F56034617461B46172
:1018A000F461346201F0A5FB2146304601F0F2FB01
:1018B0002946304601F014FC6F48704B846180E883
:1018C0001803172303614FF48073436102F024F976
:1018D0006B486C4B84604FF4827680E848004FF48C
:1018E000E063C3604FF40073072283610823C36180
:1018F000436304614461046244628462C2620463BB
:1019000003F0FAF94A4621460BA85F4E18F0D7FDBE
:101910001C2221460FA8089409940A9418F0CFFDC0
:101920005A4BB46040F6FF79304686E828003461AF
:10193000B461C6F80C9003F071FE4FF480530BA90C
:1019400030460B9303F074FF304603F081FE08A984
:10195000304608940A9404F03FF8602322460F931F
:101960000FA90223304611931094139403F0D0FE74
:1019700042460FA93046119403F0CAFE304600F0EB
:101980003FFB214614220FA818F099FD404BCAF8DE
:1019900010408AE81800FF227F235046CAF808301A
:1019A0000193CAF80C20CAF81440CAF81840CAF8C3
:1019B0001C400B9403F028F82A460FA950468DF8D6
:1019C0003C408DF83D408DF83E401294139403F056
:1019D0006DF819220BA98DF82F2050462A464FF09A
:1019E000180A8DF82C508DF82D508DF82E5003F0DC
:1019F000BCF804F061FF524621460FA80B940C94EA
:101A00000D9418F05CFD2349CBF808404FF4802E6C
:101A100058468BE80240CBF80C40CBF810508BF8BE
:101A200018408BF819408BF82040CBF82840CBF8B1
:101A30002C408BF83040CBF834408BF83840CBF852
:101A40001480CBF81C8000F08DFD0BA9584627E0D0
:101A50000010024074B50020FCB30020000C0048C8
:101A60000004004800002110000800480044004025
:101A70009028700000540040F4B50020001000A031
:101A800088B40020003C004048B40020000400401E
:101A9000002800400000045050B50020ECB40020A5
:101AA0000B9401F01DF856490F910621019B1091EE
:101AB000119158460FA912931494CDF84C8000F060
:101AC00031FE504B0F930FA90C235846109300F092
:101AD00029FE4D4B0F930FA912235846109300F087
:101AE00021FE4A4BCDF840A00FA9DFF850A10F937B
:101AF000584600F017FE214624220FA818F0DFFCFC
:101B0000434BCAF80030504601F0B6F822460FA900
:101B100050460F94109411941294139401F0F2F81B
:101B20000CF036FE2146304603F024FF4146304695
:101B300003F020FF3368C3F83490C3F83890FFF700
:101B400019FA2046FFF7DCFA642000F09FF8FFF74F
:101B5000BDFC2846FFF78CFB00F0D6FB2D4B2E4A30
:101B60002E491A602E482F4C2F4D23A3D3E9002372
:101B700018F0CAFC2A48FEF72BFB4FF0FF3382B265
:101B80002749384604F073F9284A29494FF4C863B5
:101B9000204612F0E2FC0DF077FA0FA812F0C0FC1C
:101BA000A023ADF83C308023ADF83E300FA8214B88
:101BB0001293109412F0E0FC06F07CFB1E4C00F037
:101BC0009DFC2368C01AB0F5FA7F07D300F096FC9D
:101BD000202120604FF0904001F005FAFFF780FCD3
:101BE00000F06AF813F058FA2B68002BE7D000F0E9
:101BF00085FCE4E7AFF30080000000A09CC9F93F3A
:101C000002003004040060080800900C1000C010AE
:101C10000074004014000020E54CCE3FFBCF0108CB
:101C20003C4D0020044E002038340020BC400020F1
:101C30003C34002071110008404E0020E8B3002021
:101C400038B50F4C0368A342054601D100F04AFCA9
:101C50002B68A34202D1012012F048FD2B68A34259
:101C60000CD1084A13680133272B01D8136038BD03
:101C700000231360BDE83840FFF700BC38BD00BF4B
:101C8000001000403C4E00207047000064280BD834
:101C900000EB8000C100054B054889B21980054B57
:101CA0001B685963FFF7E2BC704700BF364E002047
:101CB00043D0010848B40020F7B510211D481E4E3E
:101CC0001E4D01F085F933782870834229D0042114
:101CD00018481B4C01F07CF92F781A4A2368B84247
:101CE00023D00133632B88BF6423236001230421A5
:101CF0001048137001F06CF92368134900933A46B9
:101D00000346124818F000FC1048FEF761FA4FF045
:101D1000FF3382B20D490E4804F0A9F82088FFF77E
:101D2000B5FF2878307003B0F0BD0BB1013B2360E4
:101D30000023DCE700040048444E0020454E00200C
:101D4000484E0020464E002012D001083C4D002095
:101D500074B500200A4B1A6E42F001021A661A6E20
:101D600082B002F001020092009A9A6D42F0805215
:101D70009A659B6D03F080530193019B02B07047FD
:101D80000010024010B5044688B01422002103A8B8
:101D900018F095FB2268114B9A421DD103F1704354
:101DA000A3F5F83303A9DA6C0D4842F40052DA6463
:101DB000DA6C02F400520192019ADA6C42F00402E9
:101DC000DA64DB6C03F004030293029B0F2303939A
:101DD0000B23049301F020F808B010BD000004505C
:101DE0000008004810B5044688B01422002103A85A
:101DF00018F065FB2268154B9A4224D103F5CE33C7
:101E000003A99A6D42F000529A659A6D02F0005251
:101E10000192019ADA6C42F00102DA64DB6C03F0A1
:101E200001030293029B102303934FF0904003237E
:101E3000049300F0F1FF00223620114600F0DAFE94
:101E4000362000F00BFF08B010BD00BF007400404A
:101E500010B5044688B01422002103A818F02FFB07
:101E60002268134B9A4221D1124C1348E36C43F081
:101E70000203E364E36C03F002030193019B4FF45C
:101E800040730393122304930123059303230693C2
:101E900003A90423079300F0BFFFA36D43F40013CD
:101EA000A365A36D03F400130293029B08B010BD59
:101EB00000540040001002400004004870B5044681
:101EC00088B01422002103A818F0F9FA22681E4BEA
:101ED0009A4237D103F1204303F5003302261A6DED
:101EE00042F480721A651A6D02F480720092009AB0
:101EF000DA6C42F00102DA64DA6C02F0010201925B
:101F0000019ADA6C42F00202DA64DB6C049603F0A8
:101F100002030293029B0325C0230A2403A94FF066
:101F2000904003930695079400F076FF40F6034334
:101F3000039303A900230548049605930695079487
:101F400000F06AFF08B070BD001000A00004004857
:101F50000268054B9A4201BF044AD2F8903043F41C
:101F60000043C2F890307047002800400010024043
:101F700010B5044688B01422002103A818F09FFA77
:101F80002268134B9A4220D103F5EA3303A99A6DD4
:101F9000104842F400429A659A6D02F400420192A0
:101FA000019ADA6C42F00402DA64DB6C03F0040399
:101FB0000293029B4FF4E053039302230493032301
:101FC00006930623079300F027FF08B010BD00BF5B
:101FD000003C0040000800480268084B9A4282B06A
:101FE0000AD103F503339A6D42F002029A659B6DA4
:101FF00003F002030193019B02B07047000400400C
:1020000010B5044686B01422002101A818F057FA32
:1020100022680C4B9A4213D103F5033301A9DA6C01
:10202000094842F00402DA64DB6C03F00403009315
:10203000009BC023019302230293059300F0ECFE62
:1020400006B010BD000400400008004810B504466A
:1020500088B01422002103A818F031FA2268134B2B
:102060009A4220D103F5E63303A99A6D42F4003277
:102070009A659A6D02F400320192019ADA6C42F08C
:102080000102DA64DB6C03F001030293029B0C2370
:10209000039302230493032306934FF090400723F6
:1020A000079300F0B9FE08B010BD00BF0044004027
:1020B00010B5014688B00022362000F09BFD362086
:1020C00000F0CCFD144B154C9A6D42F010029A654D
:1020D0009B6D03F01003029301A903A8029B02F079
:1020E00025F902F0FFF80E4B236040F2E733E3607E
:1020F0000C4BB0FBF3F001380023606020462361F5
:10210000A36003F08BFA20B9204603F055F908B01C
:1021100010BD0120FBE700BF0010024038B60020D0
:102120000010004040420F007047FEE7FEE7FEE768
:10213000FEE77047704770477047000008B50448D5
:1021400003F055F90348BDE8084000F0A9BD00BF01
:1021500038B60020E8B30020014801F08FB800BF76
:10216000A8BF002008B50A4B1968024609B90949F9
:1021700019601868694602448A4206D917F05CFF64
:102180000C2303604FF0FF3008BD1A6008BD00BF8C
:102190004C4E002038C700200F49D1F8883043F456
:1021A0007003C1F888300D4B1A68002042F001021C
:1021B0001A6098601A6822F0A85222F410221A605D
:1021C0004FF48052DA601A6822F480221A60986113
:1021D0004FF000638B60704700ED00E0001002409C
:1021E0007FB50A238DF80F0000930DF1170201232C
:1021F0000DF10F01034802F08EFE9DF8170007B0A5
:102200005DF804FB88B40020F8B50F4D00220421CE
:10221000284600F0E3FE9F20FFF7E2FFA520FFF72E
:10222000DFFF0746A520FFF7DBFF0446A520FFF7E9
:10223000D7FF012206460421284600F0CFFE2002E7
:1022400040EA07403043F8BD000C004838B5002292
:1022500004211148114D00F0C1FE4B20FFF7C0FFD3
:10226000A520FFF7BDFFA520FFF7BAFFA520FFF7C8
:10227000B7FFA520FFF7B4FF0024A520FFF7B0FFAC
:1022800063190134082C5870F7D101220421024847
:10229000BDE8384000F0A2BE000C004878B600202F
:1022A00038B50022044604211548164D00F096FE6C
:1022B000012C0FD10520FFF793FFA520FFF790FF1A
:1022C000044685F82400012204210D4800F086FE12
:1022D000204638BD022C09D13520FFF781FFA5200B
:1022E000FFF77EFF044685F82500ECE71520FFF791
:1022F00077FFA520FFF774FF044685F82600E2E784
:10230000000C004878B6002038B5554C012384F8FD
:10231000273000F0F3F8632817D95248FFF7A6F9E1
:10232000FFF772FF054601464F48FFF79FF9A8B235
:10233000A0F580401138092800F28B80DFE800F01A
:10234000837D77716B655F585109012000F0DCF8DF
:10235000DFE70A23237045484FF48063E361FFF70A
:1023600085F94FF4807363814FF480532361E369EF
:102370001A011B0462611A0AE2609B0A4FF4803260
:102380002362A261FFF762FF0120FFF789FF0220AD
:10239000FFF786FF0320FFF783FF61893448FFF7CB
:1023A00065F9E1683348FFF761F921693248FFF7C1
:1023B0005DF961693148FFF759F9A1693048FFF7C4
:1023C00055F9E1692F48FFF751F9216A2E48FFF7C7
:1023D0004DF92E48FFF74AF9002384F827300120F1
:1023E00038BD092323704FF40073E3612848B6E732
:1023F000082323704FF48073E3612648AFE7072377
:1024000023708023E3612448A9E706232370402337
:10241000E3612248A3E7052323702023E3612048DA
:102420009DE7042323701023E3611E4897E70323ED
:1024300023700823E3611C4891E7022323700423DF
:10244000E3611A488BE7012323700223E3611848F4
:1024500085E71848FFF70AF9002084F8270038BDFF
:1024600078B60020A0D00108B7D00108C8D0010874
:10247000BBD10108D8D10108F0D101080FD2010861
:1024800029D2010847D2010860D2010880D2010890
:10249000DFD00108F6D001080DD1010823D10108D1
:1024A00039D101084FD1010865D101087BD101085C
:1024B00091D10108A7D10108094A136843F4807338
:1024C00010B50320136000F083FB0020FFF7F0FD40
:1024D000044618B9FFF73EFC204610BD0124FBE777
:1024E00000200240034A0449136809680B44136042
:1024F000704700BFA0B600201C000020014B1868E8
:10250000704700BFA0B6002038B50446FFF7F6FFBD
:10251000631C1CBF054B1B68054618BFE418FFF77A
:10252000EDFF401B8442FAD838BD00BF1C000020DC
:1025300030B5CC0D04F004041430C1F30451235819
:1025400007258D4023EA050302FA01F119432150C2
:1025500030BD806800F0010070478068C0F38000E3
:102560007047000037B5002301930446002800F0AF
:102570008580456D25B9FFF705FCA56584F85050A9
:10258000206883689B007BD48368DD007FD58368E7
:10259000D90040F18A800021FFF7DFFF636D13F05F
:1025A000100F636D67D1002865D123F4817343F068
:1025B000020363652068FFF7CCFF98B95248FFF724
:1025C000C8FF03465148FFF7C4FF03435048FFF7D5
:1025D000C0FF034306D14F4A6068936823F47C131D
:1025E00003439360E068636B94F820200343A06882
:1025F0000343607E012A43EA403343EA024302BFB9
:10260000626A02F1FF3243EA4243A26A22B1E06AFF
:1026100002F470720243134320683F4AC5682A409F
:102620001343C360FFF799FF23689A68120746D5E2
:102630002269012A05BF186BE2691A6B02F1FF32A9
:1026400006BF20F00F00024322F00F021A63636DF1
:1026500023F0030343F001036365084603B030BD74
:10266000019B013B0193019B002BF9D18FE71A6974
:1026700022F0010245E043F0100363650121ECE71D
:10268000836823F0204323F03F0383607CE7836863
:10269000224A23F0104323F03F0343F0805383602A
:1026A0001F4B1B68B3FBF2F3DCE7636D43F01003D1
:1026B0006365A36D43F00103A36501216CE7002866
:1026C000B6D1D86894F83020257E520020F480409E
:1026D00042EA853220F002000243DA6094F83820A2
:1026E000012AC4D1256CE26B18692A43656C42F05B
:1026F00001022A43A56C20F4FF602A4320F0040065
:1027000002431A6194E700BF000004500001045026
:10271000000204500003045007C0F0FF400D030006
:1027200018000020F7B50023019390F85030012BDA
:1027300005460C4600F08481012380F85030006883
:10274000FFF70BFF002840F075814B68052B08D878
:10275000023B032B66D8DFE803F0025E60620C23C5
:102760006360626828682368910901F00C0100F138
:10277000300702F01F02CE594FF01F0EC3F38463DF
:1027800093400EFA02F226EA02021343CB51FFF7FE
:10279000E4FE2B689A68110740F154812868FFF71E
:1027A000D8FE002840F0D380E66828682368BA4A3B
:1027B000D0F8B01006F0180EC3F3120722FA0EF28A
:1027C0001A4021EA07010A43C0F8B020B34A9642F2
:1027D00040F0BD80002F40F08F809E0E013606F045
:1027E0001F02092A4FF001014FEA866640F29E80DF
:1027F00006F0F846914041EA0602002F40F0C780FB
:102800009B0E013303F01F0303EB43011E3909053F
:1028100041F0007197E01223A2E71823A0E74FF4DC
:1028200080739DE706239BE7196E196EC2F31206AB
:10283000C1F38461002E3ED1C2F384628A4202BF9A
:102840001A6E22F000421A665A6E22685E6EC2F359
:102850001207C6F3846600F10C018FBBC2F38467D4
:10286000BE4240F012815A6E22F000425A6622683F
:1028700083688368C2F3120700F10806C3F3846318
:1028800057BBC2F38462934240F01C81336823F04B
:1028900000433360C3682368C268C3F31200C2F305
:1028A000846220BBC3F38463934202BF0B6823F0AE
:1028B00000430B6072E792FAA2F2B2FA82F2BDE72D
:1028C00092FAA2F7B7FA87F7BE42CCD003F16806B6
:1028D0009F6E9B6EC3F3846392FAA2F2B2FA82F205
:1028E0009A42D3D0C368C2682368C2F3846293FA61
:1028F000A3F3B3FA83F3D7E793FAA3F2B2FA82F21F
:10290000013202F01F02092A30D893FAA3F6B6FA70
:1029100086F60136B60606F0F84693FAA3F1B1FA48
:1029200081F1013101F01F02012101E006F0F846BA
:10293000914041EA0602A7B9990E013101F01F0149
:1029400001EB410109051143A268FFF7F1FD22687F
:10295000534B1A4220D10020002385F8503003B099
:10296000F0BD93FAA3F1B1FA81F1E6E793FAA3F28D
:10297000B2FA82F20132920602F0F84693FAA3F11B
:10298000B1FA81F1013101F01F02012132E793FA1E
:10299000A3F3B3FA83F334E74249434B88689A427E
:1029A00000F0E0760C461ED10202D4D42B683F4AD8
:1029B000934203D002F500729342CCD1A3683C4A03
:1029C00023F0E073334343F40003A360394B1B68E7
:1029D000B3FBF2F20C2353430193019B002BBAD0BB
:1029E000019B013BF8E7344B9A4211D1C301B2D4A9
:1029F0002B682E4A934203D002F500729342AAD16B
:102A0000A36823F0E073334343F08073A360A2E72D
:102A10002A4B9A429FD110F480009CD12A68234B04
:102A20009A4298D18B6823F0E073334343F48003D8
:102A30008B6091E76A6D42F020026A6518468BE769
:102A400002208CE700287FF4A9AE1846A26821680E
:102A5000FFF76EFD26692B682268D968042E03F102
:102A600060003FF4E1AEC1F3C1035900636950F85F
:102A7000267002F0F84242F000428B401343104AA5
:102A80003A40134340F8263088E603F168069F6E0B
:102A90009B6EC3F38463F4E6FFFF070000007F40F2
:102AA0000000088000030450000052C700000450DA
:102AB000400D030018000020000084CB01000080BE
:102AC00000F0FF03C368C2682368C2F38462E9E6CA
:102AD000806800F0010070478068C0F38000704794
:102AE00030B590F85030012B9BB0024666D00123E0
:102AF00080F85030324B006898420CBF03F5807369
:102B000000230193019840B9536D82F8500043F0BF
:102B10002003536501201BB030BDFFF7DDFF0346E6
:102B20001068FFF7D9FF002842D1002B40D10B6875
:102B3000244C33B3A368486823F46043034392F8FA
:102B4000300043EA4033A3601D48FFF7C1FF03464E
:102B50001D48FFF7BDFF03431C48FFF7B9FF1843AB
:102B600004D00020002382F85030D4E70B68A56819
:102B700089680B4325F4716121F00F010B43A360B9
:102B8000F0E7A3680E4823F46043A360FFF7A0FFBB
:102B900003460D48FFF79CFF03430C48FFF798FFDF
:102BA0001843DED1A36823F4716323F00F03E6E733
:102BB000536D43F0200353650120D3E70220AAE7B9
:102BC00000000450000304500001045000020450AF
:102BD000074AD36823F4E0631B041B0C43F0BF6374
:102BE000000243F4003300F4E0600343D360704715
:102BF00000ED00E0174B30B5DC68C4F30224C4F1EB
:102C00000703251D042B28BF0423062D4FF00105C3
:102C100005FA03F303F1FF338CBF033C0024194092
:102C2000A14005FA04F4013C2240002842EA0102D6
:102C30004FEA0212ADBF00F1604000F00F00064BFA
:102C400000F56140B5BFD2B2D2B21A5480F8002369
:102C500030BD00BF00ED00E014ED00E0002808DB0F
:102C60004209012300F01F0003FA00F0014B43F872
:102C70002200704700E100E010B5044668B1037916
:102C800003F0FF0213B94271FFF7ACF8022323717E
:102C9000002001232061237110BD012010BD704769
:102CA00003681A68910410B5044611D55A6B920452
:102CB0000ED504220271026942F0010202614FF452
:102CC00000525A631A6822F480521A60FFF7E7FF35
:102CD00023681A68910014D55A6B920011D504220A
:102CE0002271226942F0020222614FF000525A63BF
:102CF0001A6822F0805220461A60BDE8104000F0A9
:102D00008AB810BDF8B54379012B04460D46164626
:102D10004FF0020063D00B6820710122042B627116
:102D200025D1002E6CD1FFF7E9FB074623685B6BCA
:102D30001B0455D40120FFF7E7FB2368AA691A6436
:102D4000216806F010008A6C40F2FF33834022EACB
:102D50000302EB6983401A438A64CB6CFF228240F2
:102D600023EA02032A6A02FA00F00343CB642B69C8
:102D7000012B06F01002236808D1996B1F209040A8
:102D800021EA00006969914001439963D96BAE68FB
:102D90000720904021EA000029683143EE68314362
:102DA00091400143D96319684FF48040904021EA73
:102DB00000011960196840F6FC70904021EA00009B
:102DC00069689140014319601968C02000FA02F255
:102DD00021EA02021A600020012323716071F8BD0C
:102DE000FFF78CFBC01B0128A0D92369032043F007
:102DF000080323612071F8BDFFF780FB0128F4D898
:102E000023685B6B002BF7DB0120FFF77DFB23685A
:102E1000AA695A6494E770472DE9F04F85B00B68B2
:102E2000DFF8A881674C01930023019ADA4002D1B0
:102E300005B0BDE8F08F0126019A9E4012EA060E09
:102E400000F0B1804A6822F01007022F16D14FEA35
:102E5000D30900EB890903F0070AD9F820504FEA9B
:102E60008A0A4FF00F0C0CFA0AFC25EA0C0C0D69CB
:102E700005FA0AF545EA0C05C9F820504FEA430C5B
:102E80000325D0F800B005FA0CF5ED4302F0030A73
:102E90000BEA050B0AFA0CF9013F49EA0B09012F6D
:102EA000C0F8009011D8876805EA0709CF6807FACB
:102EB0000CF747EA09078760476827EA0609C2F363
:102EC00000179F4047EA09074760BAF1030F07D18F
:102ED000C76A27EA0606C2F3C0079F403E43C662A0
:102EE000C66835408E6806FA0CF63543C560D500D5
:102EF00059D5D8F8605045F00105C8F86050D8F8A9
:102F0000605023F0030606F1804605F0010506F542
:102F10008036039503F0030C039DB5684FEA8C0CD3
:102F20000F2707FA0CF7B0F1904F25EA07073CD0BE
:102F3000254DA8423BD005F58065A84239D005F55E
:102F40008065A84237D005F58065A84235D005F5E3
:102F50008065A84233D005F58065A84214BF0725D7
:102F6000062505FA0CF53D43B56025686FEA0E06A7
:102F7000D70354BF35404EEA0505256065689703C1
:102F800054BF35404EEA05056560A568D70254BFB9
:102F900035404EEA0505A560E568920254BF35400C
:102FA0004EEA0505E56001333FE70025D9E7012535
:102FB000D7E70225D5E70325D3E70425D1E7052583
:102FC000CFE700BF000401400004004800100240A9
:102FD0000369194214BF0120002070470AB18161C2
:102FE00070478162704743690B4214BF81628161FF
:102FF000704710B5044600284AD090F8413003F0DD
:10300000FF021BB980F84020FEF722FF242384F83A
:1030100041302368E1681A6822F001021A60626890
:1030200022F070621A619A68012922F400429A60C3
:10303000A26824D142F400429A605A68616942F061
:10304000007242F400425A60DA6822F40042DA6008
:1030500022690A43A16942EA0122DA60216AE2692F
:103060000A431A601A6842F001021A600020202305
:10307000606484F84130206384F8420010BD42F45B
:10308000044202299A6004BF4FF400625A60D4E7F8
:10309000012010BD90F84120D2B2202A10B51DD1D8
:1030A00090F84030012B19D0242380F84130036878
:1030B0001C6824F001041C601C6824F480541C600B
:1030C0001C6821431960196841F00101196000234F
:1030D00080F8412080F84030184610BD022010BD15
:1030E00010B590F84140E4B2202C1CD190F840304B
:1030F000012B18D0242380F8413003681A6822F08D
:1031000001021A601A6822F4706242EA0121196011
:103110001A6842F001021A60002380F8414080F8EA
:103120004030184610BD022010BDF0B504468BB0EB
:1031300060B390F8BD33056803F0FF021BB980F857
:10314000BC230BF0DFFB032384F8BD33EB6B254678
:1031500013F4807355F8100B08BF236103F006F8D1
:103160000FCD6E460FC60FCD0FC695E8030086E85B
:1031700003002546271D97E80E0055F8100B02F0B6
:1031800043FF064620B1022384F8BD33012556E0F3
:103190000146206802F0F0FF3046D4F804E01C2617
:1031A0004FF0010C0146C2B2964500F101001CD857
:1031B00000231C261946D8B2864503F1010322D804
:1031C0000FCD6E460FC60FCD0FC695E8030086E8FB
:1031D000030097E80E00206803F010F8012305466D
:1031E00000B3022284F8BD23D0E706FB024383F834
:1031F0003DC083F83C20A3F8422083F83F10596477
:1032000099641965CFE706FB004282F8FD1182F848
:10321000FC0182F8FF11C2F80412C2F80812C2F8C9
:103220001012C8E784F8380084F8BD33636A012BB4
:1032300002D1204600F0E8FB206803F0C1FA2846DE
:103240000BB0F0BD90F8BC33012B10B5044613D081
:103250000123006884F8BC33A36A012B02BF836B8F
:1032600043F48033836303F09FFA206802F078FF11
:10327000002084F8BC0310BD022010BD2DE9F04FE2
:10328000066885B00446304603F0D5FA0090002861
:1032900040F04A81206803F09FFA002800F0448142
:1032A000206803F099FA850748BF2268206842BF6A
:1032B000536903F00203536103F08EFA10F4002502
:1032C0000ED02068DFF880A403F08AFA06F5306794
:1032D000804600254FF02009B8F1000F40F027810B
:1032E000206803F079FA42030BD5206803F080FAD6
:1032F0002746834606F5106A0025BBF1000F40F013
:103300006881206803F068FA002815DAD6F80438D6
:1033100023F00103C6F8043894F8F433012B40F08D
:10332000DE81002184F8F41320460BF06FFC226844
:10333000536903F000435361206803F04DFA03051D
:103340000BD5D6F80838DF0702D520460BF056FB20
:103350002268536903F400635361206803F03CFA68
:10336000000114D523685A6902F000625A6194F88A
:10337000F423002A40F0B7815B6D0121C3F383037E
:1033800084F8F413C4F8F83320460BF03FFC2068AF
:1033900003F022FAC10434D506F500677B68206883
:1033A00023F001037B60102102F0FEFE606806F549
:1033B00010634FF67F31009A824240F09881FB699A
:1033C00043F00113FB61236B002B00F0A281D7F8BF
:1033D000843043F00B03C7F884307B6C43F00B035D
:1033E0007B64D6F80038206823F4FE63C6F8003802
:1033F00004F5717103F03EFA2268536903F48053B7
:103400005361206803F0E8F9820416D5206803F0C0
:1034100016FA206802F09AFFE060276800F05CFF6F
:10342000227B0146384602F027FE20460BF0D3FAF5
:103430002268536903F400535361206803F0CCF908
:10344000C3062BD52268936923F010039361376A72
:10345000C7F34343022B07F00F0940F0658147F69D
:10346000F0731F4215D04FF01C0808FB0948C7F342
:103470000A173A46D8F80812304603F01FF9D8F870
:1034800008323B44C8F80832D8F814321F44C8F850
:1034900014722268936943F010039361206803F06B
:1034A0009BF9070707D520460BF091FA226853696C
:1034B00003F008035361206803F08EF9C60208D5B3
:1034C000E9B220460BF0D0FA2268536903F4801366
:1034D0005361206803F080F9800208D5E9B22046E4
:1034E0000BF0BEFA2268536903F40013536120689D
:1034F00003F072F9410007D520460BF0B9FA2268B3
:10350000536903F080435361206803F065F9420773
:103510000AD523685D686B0702D520460BF0ACFA2C
:1035200023685A6815435D6005B0BDE8F08F18F058
:10353000010F40D0EAB211462068019203F060F911
:1035400010F0010F8346019A0FD00121B960216864
:10355000086C01F5306101EB451150458B6833D1A2
:1035600018042DD54FF400428A601BF0080F12D0CA
:103570002268116C02F5306202EB451251459068E9
:1035800004D1010444BF4FF40041916020460BF088
:1035900007FA0822BA601BF0100F1CBF1022BA6095
:1035A0001BF0200F18BFC7F808901BF4005F1CBF6A
:1035B0004FF40053BB6001354FEA580820378BE6C3
:1035C000980648BFC1F80890114620460BF0EEF966
:1035D000CBE71BF0010F7BD0EBB2194620680193BB
:1035E00003F017F910F0010F804610D0D6F83438E8
:1035F0000199012005F00F0200FA02F223EA02030A
:10360000C6F83438CAF8080020460BF0D8F918F08C
:10361000080F1CBF0823CAF8083018F0100F1CBF91
:103620001023CAF8083018F0400F1CBF4023CAF816
:10363000083018F0020F1CBF0223CAF8083018F037
:10364000800F45D07A6D3B6D9A4241D8A3EB0208BA
:103650007B6C21680291984528BF984601F510635C
:1036600008F1030803EB45134FEA98080393039B03
:103670007A6D9B699BB243453B6D27D3934225D915
:1036800063B9029B05F00F01D3F83428012000FA3A
:1036900001F122EA0102C3F8342819E0A3EB020980
:1036A0007B6C019AB96C0298994528BF99461FFA1C
:1036B00089F302F03BFFBB6C4B44BB647B6D09F1AB
:1036C00003084B444FEA98087B65D0E79342D8D96A
:1036D00001354FEA5B0B1C370AF1200A0DE6204644
:1036E0000BF0A4F923E620460BF088F94FE6996029
:1036F0001A6822F400121A60C3F80812D3F80022E4
:1037000022F40012C3F80022009A01320092203302
:1037100051E67B6943F4005343F02B037B613B6923
:1037200043F00B033B615CE6062B7FF4B2AE08224C
:1037300004F5717130464FF01C0802F0BFFF08FB22
:103740000948C7F30A179FE60A31544F90F8BC2383
:10375000012A10B504460BD0012280F8BC2384F85E
:103760003810006803F010F8002084F8BC0310BD86
:10377000022010BD70B5044601F00F0011F0800F5B
:103780004FF01C06C5B206FB054115BF06FB0545FB
:1037900006FB05453C3101F5FE7115BF01260026EB
:1037A00085F83D6085F8FD618A604A78CB70C0B2CB
:1037B000087002B1C880022B04BF00230B7194F87B
:1037C000BC33012B09D0012384F8BC33206802F0FC
:1037D000C7FD002084F8BC0370BD022070BD01F05D
:1037E0000F03DAB210B504461C2011F0800F00FB65
:1037F000024119BF3C3100FB024200FB024201F5CD
:10380000FE7115BF0120002082F83D0082F8FD0105
:103810000B7094F8BC33012B09D0012384F8BC331E
:10382000206802F0DFFD002084F8BC0310BD0220F8
:1038300010BD38B501F00F051C2404FB050104FB85
:10384000050401F5FE71C4F810320023C4F8082203
:10385000C4F8143284F8FD3184F8FC5100681DB9B5
:1038600002F0F2FD002038BD02F070FEFAE71C23E2
:1038700001F00F0103FB0101D1F81402704738B5C4
:1038800001F00F051C2404FB050104FB05043C3179
:103890002365002363650123A26484F83D3084F826
:1038A0003C5000681DB902F0CFFD002038BD02F089
:1038B0004DFEFAE738B5436801F00F059D42044616
:1038C0002DD811F0800F4FF01C021ED002FB050115
:1038D00002FB050301223C3381F83D2001229A704E
:1038E0001D7094F8BC1391421BD084F8BC23194678
:1038F000206802F0F1FE25B904F57171206802F02C
:10390000B9FF002084F8BC0338BD02FB010302FBB1
:103910000101002203F5FE7381F8FD21DEE701209D
:1039200038BD022038BD38B5436801F00F029A4215
:10393000044626D81C2311F0800F03FB020119BF97
:103940003C3103FB020301F5FE7103FB024314BF8C
:10395000012000204FF0000514BF83F83D0083F8DC
:10396000FD018D700A7094F8BC33012B0BD001233C
:1039700084F8BC33206802F0DCFE84F8BC5328468F
:1039800038BD012038BD022038BD90F8BC33012B72
:1039900010B5044611D0012380F8BC330B0608D5BE
:1039A00001F00F01006802F0FFFB002084F8BC0367
:1039B00010BD006802F00AFCF7E7022010BD70B5E8
:1039C0000468636A21B943EA0243A362002070BD20
:1039D000A06A4D1E03EB10430020461CC0B2854276
:1039E00006D83F3104EB810443EA02436360EDE70C
:1039F000403004EB8000406803EB10433046ECE7B6
:103A00000368002059627047026803460121C0F82C
:103A1000FC13002083F8F403936943F0006393617F
:103A2000536D43F0805343F0030353657047000028
:103A3000024A136843F480731360704700700040BB
:103A4000024B186800F4C060704700BF007000406F
:103A5000174B1A68B0F5007F02F4C0621CD1B2F5B2
:103A6000007F15D01A6822F4C06242F400721A6016
:103A7000104A116832224A430F49B2FBF1F219464B
:103A800001325869400500D522B94B695B050DD458
:103A900000207047013AF4E7B2F5806F1FBF1A6843
:103AA00022F4C06242F480621A60F1E7032070479A
:103AB000007000401800002040420F00024A536886
:103AC00043F4806353607047007000402DE9F0417B
:103AD000069D04460F461646984621688A683A4273
:103AE00014BF01220022B24202D10020BDE8F081C1
:103AF0006B1CF3D0FEF702FDA0EB0800854201D35A
:103B0000002DEAD1042384F83930E36B43F001033C
:103B1000E3630120BDE8F08137B50446FEF7EEFC13
:103B20000546002C49D094F83830012B47D00123AA
:103B300084F8383094F8392002F0FF033AB984F859
:103B400038302046FEF7BAF941F288332364206802
:103B5000A1680268236C013922F4706242EA0122F2
:103B600002602021009300222B462046FFF7AEFF83
:103B7000F0B9226865681168E36821F07F4143EA83
:103B8000056321F010010B431360A1696369556857
:103B90000B43216943EA01430A4929400B4353601F
:103BA000136843F0010313600123E06384F83930A4
:103BB000002384F8383003B030BD0120FBE7022039
:103BC000F9E700BFFEF8E0FF37B51E4DAB6DDA0038
:103BD000044618D5FFF734FFB0F5007F23D1802CC1
:103BE00029D9A02C8CBF02200120174A136823F08A
:103BF000070303431360136803F00703181A18BF81
:103C0000012003B030BDAB6D43F08053AB65AB6DAD
:103C100003F080530193019BFFF712FFAB6D23F07C
:103C20008053AB65D8E7802C07D808D0A4F1700387
:103C300058425841D9E70020D7E70320D5E70220B2
:103C4000D3E700BF0010024000200240224B9A68D8
:103C5000D96812F00C0205D00C2A15D101F003012D
:103C6000012918D119681D48090755BFD3F89410C8
:103C70001968C1F30321C1F3031150F821004AB3BD
:103C80000C2A09D000207047042A22D0082A1448A0
:103C900018BF002070470020DA6802F00302022AF1
:103CA00015D00F49032A08BF0846DA68D968DB68CF
:103CB000C3F34163C1F30621C2F302120133484347
:103CC00001325B00B0FBF2F0B0FBF3F07047054847
:103CD000EBE70448704700BF0010024070D00108B5
:103CE00000127A000024F4002DE9F743054608B9D4
:103CF000012047E0A64C0368A668E768DB0606F0EB
:103D00000C0607F0030773D51EB10C2E52D1012FFC
:103D100050D12368980702D5AB69002BE8D02368FF
:103D2000286A190756BFD4F8943023681B0903F09A
:103D3000F003834229D2FFF747FF0028D8D1236838
:103D400043F00803236023682A6A23F0F003134337
:103D500023606368EA6923F47F4343EA02236360D4
:103D6000FFF774FFA3688B4AC3F30313D35C03F01C
:103D70001F03D840884B1860884B1868FEF798F9E5
:103D8000002835D003B0BDE8F083236843F0080372
:103D90002360236823F0F003034323606368EA6928
:103DA00023F47F4343EA02236360FFF70DFF0028FB
:103DB000D6D09DE7AB69002B36D0236843F00103D2
:103DC0002360FEF79BFB804623689A0724D523686F
:103DD00043F00803236023682A6A23F0F0031343A7
:103DE00023606368EA6923F47F4343EA0223636044
:103DF0002B68D80729D42B68990767D42B68180734
:103E000000F19C802B68590700F1CA80A86A00283D
:103E100040F033810020B5E7FEF770FBA0EB08000F
:103E20000228D1D90320ADE7236823F001032360E2
:103E3000FEF764FB804623689B07D9D5FEF75EFB3F
:103E4000A0EB08000228F6D9ECE7082E03D00C2ED0
:103E500008D1032F06D123689A03CCD56B68002BB9
:103E6000C9D145E76B68B3F5803F10D1236843F4AF
:103E700080332360FEF742FB804623689B03BAD45D
:103E8000FEF73CFBA0EB08006428F6D9CAE7B3F5BF
:103E9000A02F04D1236843F480232360E6E722683F
:103EA00022F480322260226822F480222260002BD9
:103EB000E0D1FEF723FB8046236898039BD5FEF7ED
:103EC0001DFBA0EB08006428F6D9ABE7042E03D055
:103ED0000C2E10D1022F0ED12368590503D5EB68A3
:103EE000002B3FF405AF63682A6923F0F85343EAD7
:103EF0000263636082E7EB687BB1236843F48073FD
:103F00002360FEF7FBFA074623685A05EBD4FEF759
:103F1000F5FAC01B0228F7D984E7236823F48073DD
:103F20002360FEF7EBFA074623685B057FF566AF73
:103F3000FEF7E4FAC01B0228F6D973E76B699BB160
:103F4000D4F8943043F00103C4F89430FEF7D6FA65
:103F50000746D4F894309A073FF554AFFEF7CEFAEF
:103F6000C01B0228F5D95DE7D4F8943023F0010393
:103F7000C4F89430FEF7C2FA0746D4F894309B0791
:103F80007FF540AFFEF7BAFAC01B0228F5D949E722
:103F90000010024056D00108180000202000002028
:103FA000A36DD80029D4A36D43F08053A365A36DFE
:103FB00003F080530193019B4FF00108794F3B6858
:103FC000D9051DD5AB68012B2BD1D4F8903043F027
:103FD0000103C4F89030FEF791FA41F288390746A0
:103FE000D4F890309B0742D5B8F1000F3FF40EAFE4
:103FF000A36D23F08053A36508E74FF00008DDE7C9
:104000003B6843F480733B60FEF778FA81463B6877
:10401000DA05D7D4FEF772FAA0EB09000228F6D928
:1040200000E7052B06D1D4F8903043F00403C4F820
:104030009030CAE7D4F8902022F00102C4F8902012
:10404000D4F8902022F00402C4F89020002BC2D1B2
:10405000FEF754FA41F288390746D4F890309807B1
:10406000C2D5FEF74BFAC01B4845F6D9DAE6FEF793
:1040700045FAC01B4845B3D9D4E60C2E5CD0236862
:10408000022823F0807323603BD1FEF737FA0646FF
:10409000236899012FD4E268434B1340EA6A134323
:1040A0006A6B43EA02232A6B013A43EA0213AA6BC2
:1040B000120943EA4243EA6B5208013A43EA425387
:1040C0002A6C5208013A43EA4263E360236843F0F2
:1040D00080732360E36843F08073E360FEF70EFAB9
:1040E000054623689A013FF595AEFEF707FA401B97
:1040F0000228F6D996E6FEF701FA801B0228C7D9F6
:1041000090E6236813F0205F02BFE36823F0030307
:10411000E360E36823F0887323F48033E360FEF701
:10412000EDF9054623689B017FF574AEFEF7E6F9CD
:10413000401B0228F6D975E601283FF423AEE36858
:10414000EA6A03F0030191427FF4D2AD296B03F0D8
:1041500070020139B2EB011F7FF4CAAD696B03F441
:10416000FE42B2EB012F7FF4C3ADAA6B073A03F412
:10417000003118BF012291427FF4BAADEA6B5208B8
:1041800003F4C001013AB1EB425F7FF4B1AD2A6C98
:104190005208013A03F0C063B3EB426F14BF012031
:1041A0000020EFE5007000408C809DF92DE9F04182
:1041B0000E46044610B90120BDE8F081414A13685B
:1041C00003F007038B422AD32368D90732D421682E
:1041D0008A075CD43B4A136803F007039E425ED310
:1041E00011F0040F384D65D10B0706D5AB68226975
:1041F00023F4605343EAC203AB60FFF727FDAB68CB
:10420000324AC3F30313BDE8F041D35C03F01F034C
:10421000D8402F4B18602F4B1868FDF749BF136823
:1042200023F007030B431360136803F0070399425D
:10423000C1D1C9E76268244D032A2B681BD113F052
:10424000007FB8D0AB6823F003031343AB60FEF7E5
:1042500055F941F288380746AB68626803F00C03F1
:10426000B3EB820FB3D0FEF749F9C01B4045F3D939
:104270000320BDE8F081022A02D113F4003FE0E7F9
:1042800012B913F0020FDCE713F4806FD9E70E4A7E
:10429000A068936823F0F003034393609AE71368E0
:1042A00023F0070333431360136803F007039E42B0
:1042B00081D195E7AB68E26823F4E0631343AB6018
:1042C00092E700BF002002400010024056D00108D3
:1042D0001800002020000020014B1868704700BF24
:1042E00018000020054B064A9B68C3F30223D35CE9
:1042F000044A106803F01F03D840704700100240C2
:1043000066D0010818000020054B064A9B68C3F3DD
:10431000C223D35C044A106803F01F03D8407047DF
:104320000010024066D00108180000200F2303602F
:104330000B4B9A6802F0030242609A6802F0F002A6
:1043400082609A6802F4E062C2609B68DB0803F452
:10435000E0630361034B1B6803F007030B607047C6
:104360000010024000200240F8B5454BDA6812F018
:10437000030F05460E461C4600682AD0DA6802F094
:10438000030282423CD1002A3AD0DB686A68C3F358
:1043900002130133934233D1236823F080632360F7
:1043A000FEF7ACF8074623681A0132D4AF68002E36
:1043B00036D0012E50D12269286922F4C00240086B
:1043C00022F4FE42013842EA072242EA40522261C8
:1043D00032E0022810D0032814D0012810D11B6825
:1043E0009F0738D5E3686A6823F07303013A1843DE
:1043F00040EA0210E060CFE71B6813F4806FF1D150
:104400000120F8BD1A689103ECD41B6813F4802FC7
:10441000F5E7FEF773F8C01B0228C4D90320F8BDE6
:104420002169EB6821F41F3121F4407141EA072131
:104430001B0941EA43412161236843F08063236003
:10444000FEF75CF8064623681B0113D52369AA69A9
:10445000134323610020F8BD2369686923F0C0631A
:10446000400823F4FE43013843EA072343EA40634C
:104470002361E1E7FEF742F8801B0228E3D9CDE78C
:1044800000100240F8B53D4BDA6812F0030F054604
:104490000E461C46006828D0DA6802F00302824209
:1044A0003AD1002A38D0DB686A68C3F302130133BB
:1044B000934231D1236823F080532360FEF71EF826
:1044C000074623689A0030D4A868002E34D0636968
:1044D000296923F0C063490823F4FE43013943EA04
:1044E000002343EA4163636132E0022810D00328CD
:1044F00014D0012810D11B689F0738D5E3686A687B
:1045000023F07303013A184340EA0210E060D1E758
:104510001B6813F4806FF1D10120F8BD1A68910374
:10452000ECD41B6813F4802FF5E7FDF7E7FFC01B01
:104530000228C6D90320F8BD6269EB6822F41F3255
:1045400022F4407242EA00221B0942EA43426261BD
:10455000236843F080532360FDF7D0FF06462368AD
:104560009B0005D563696A69134363610020F8BD48
:10457000FDF7C4FF801B0228F1D9DBE700100240E1
:104580002DE9F347066816F40066044624D0416E10
:10459000B1F5800F2CD002D8C1B101261CE0B1F5D5
:1045A000000F0DD0B1F5400FF7D14D4A616ED2F832
:1045B000883023F440030B43C2F8883000260BE018
:1045C000474AD36843F48033D360EEE70430FFF703
:1045D000CBFE06460028E8D02368D80406D5A16E95
:1045E000B1F1807F74D008D8A9B10126354621E009
:1045F00000212030FFF746FFEBE7B1F1007F04D048
:10460000B1F1407FF1D1354609E0354AD36843F432
:104610008033D360F7E7201DFFF7A6FE0546002D87
:104620005CD12F4AA16ED2F8883023F040730B433F
:10463000C2F888302368990340F14F81284FBB6D41
:10464000DA0040F176814FF00008DFF89890D9F851
:10465000003043F48073C9F80030FDF74FFF824605
:10466000D9F80030DB053FD5002D44D1D7F8903084
:1046700013F4407315D0D4F88420934211D0D7F8A6
:104680009030D7F8902042F48032C7F89020D7F8C5
:10469000902023F4407322F48032C7F89020C7F8AA
:1046A0009030D80709D5FDF729FF41F28839054632
:1046B000D7F89030990740F10981D7F89030D4F8B5
:1046C000842023F440731343C7F89030354612E03A
:1046D000002104F12000FFF7D5FE9FE72E46A9E751
:1046E0000010024000700040FDF708FFA0EB0A0038
:1046F0000228B5D90325B8F1000F03D0BB6D23F014
:104700008053BB652368DA0708D59049A06BD1F8C0
:10471000882022F003020243C1F888209F0708D5B1
:104720008A49E06BD1F8882022F00C020243C1F8DC
:1047300088205E0708D58549206CD1F8882022F0B2
:1047400030020243C1F88820180708D57F49606C01
:10475000D1F8882022F0C0020243C1F88820D9068F
:1047600008D57A49A06CD1F8882022F4407202431F
:10477000C1F888209A0608D57449E06CD1F88820E1
:1047800022F440620243C1F888209F0508D56F4992
:10479000E06DD1F8882022F440220243C1F888203D
:1047A0005E0508D56949206ED1F8882022F44012B0
:1047B0000243C1F88820580608D56449206DD1F815
:1047C000882022F440520243C1F88820190608D5F7
:1047D0005E49606DD1F8882022F440420243C1F85E
:1047E0008820DA0508D55949A06DD1F8882022F42F
:1047F00040320243C1F888209B040FD5534AE16E32
:10480000D2F8883023F040630B43B1F1006FC2F857
:10481000883064D1D36843F48013D36023681F03C6
:104820000FD54A4A216FD2F8883023F040630B43FA
:10483000B1F1006FC2F888305CD1D36843F48013C3
:10484000D36023685E030FD5404A616FD2F8883089
:1048500023F040630B43B1F1006FC2F8883054D1AC
:10486000D36843F48013D3602368580412D53749C2
:10487000A26FD1F8883023F040531343B2F1805F28
:10488000C1F888304CD10221201DFFF76DFD0028B2
:1048900018BF05462268110408D52C49E06FD1F8ED
:1048A000883023F080430343C1F88830D30309D50F
:1048B000264AD4F88010D2F8883023F000430B4306
:1048C000C2F88830284602B0BDE8F087FDF716FE32
:1048D000401B48457FF6ECAE0CE7354612E7B1F1D8
:1048E000806F9BD10121201DFFF73EFD002818BFDE
:1048F000054693E7B1F1806FA3D10121201DFFF799
:1049000033FD002818BF05469BE7B1F1806FABD19E
:104910000121201DFFF728FD002818BF0546A3E749
:10492000B2F1005FB6D1022104F12000FFF7AAFD29
:10493000ADE7BB6D43F08053BB65BB6D03F08053A7
:104940000193019B4FF001087FE600BF0010024079
:10495000026838B5D36823F0A003D3600446FDF79E
:10496000CDFD05462368DB689B0601D5002038BDD8
:10497000FDF7C4FD401BB0F57A7FF3D9032038BDA5
:10498000F8B50368DC6814F04004054618D14FF010
:10499000FF32DA60FDF7B2FD032706462B68DB68BD
:1049A0005B0601D4032C01D12046F8BDFDF7A6FD1E
:1049B000801BB0F57A7F84BF85F821700324EDE772
:1049C0000024F1E738B50F4CE36823F08003E3607F
:1049D000A3689B06054606D4FFF7BAFF88B10320FB
:1049E00085F8210038BDA36823F02003A360FFF7FA
:1049F000AFFF10B1032085F82100A36843F0200326
:104A0000A36038BD0028004038B50446002840D0D7
:104A100090F8213003F0FF021BB980F82020FDF749
:104A200097FA022384F821302368CA225A6253225B
:104A30005A622046FFF7A4FF00282BD12368206983
:104A40009A6822F4E00222F040029A606268996853
:104A50000243A06902430A439A60E2681A611A6934
:104A6000A16842EA01421A612046FFF7ABFF88B90C
:104A700023686569DA6C22F00302DA64E269D96CB2
:104A80002A430A43DA64FF225A62012384F8213060
:104A900038BD012038BD0023092803D840EA03109F
:104AA000C0B270470A380133C0B2F5E7F8B590F8E4
:104AB0002030012B05460E4617464FF0020352D018
:104AC00080F821300122036880F82020CA225A622F
:104AD00053225A62FFF754FF68BB2B683078747812
:104AE000B1789B6897BB13F0400308BFF370FFF7E2
:104AF000D2FF02462046FFF7CEFF04460846FFF7E6
:104B0000CAFFF37840EA835040EA024040EA0420BA
:104B10002B6800F07F3020F0FE4018609A68306902
:104B200022F480229A60F268996802430A439A60EC
:104B30002846FFF747FF2B68FF225A6210B901236E
:104B400085F82130002385F82030F8BD13F04003AC
:104B50004FEA042408BFF37044EA0040F4780843A5
:104B600040EA8450D4E71846F8BDF8B590F82030F4
:104B7000012B05464FF0020043D0012385F8203079
:104B800085F821004B78C8788E780C7892BBDA06CD
:104B900003D523F010030A334B70FFF77CFF074661
:104BA0004878FFF778FF02463046FFF774FF40EA87
:104BB000443040EA074040EA02242B68CA225A6285
:104BC00053225A622846FFF7DBFE40B92B6824F0D7
:104BD0007F4424F0C0045C602846FFF7F3FE2B6896
:104BE000FF225A6210B9012385F82130002385F88D
:104BF0002030F8BD1B0243EA0040304340EA443411
:104C0000DBE7F8BD03685A6822F0E0025A604268A8
:104C1000B2F5827F0AD18268B2F5004F02D0B2F5B8
:104C2000806F03D11A6822F040021A60826AB2F5DE
:104C3000005F07D11A6822F400521A601A6842F421
:104C400000521A60012380F85D30002380F85C3048
:104C50000320704770B504460D46164623689868D1
:104C600010F0800000D170BD6A1CF8D0FDF746FC42
:104C7000801B8542F2D82046BDE87040FFF7C2BFD6
:104C8000F8B505460C4616461F4629688868204038
:104C900000D1F8BDB4F5C06F08BF0B7B731CF5D015
:104CA000FDF72CFCC01B8642EFD82846BDE8F84033
:104CB000FFF7A8BF70B513460D4616460A464FF4D7
:104CC000C0510446FFF7DCFF28B1236E43F02003F8
:104CD000236603200FE0324629462046FFF7BAFF3D
:104CE0000028F2D133462A464FF4C0612046FFF730
:104CF000C7FF0028E9D170BD70B5044600284AD02E
:104D00000023836290F85D3003F0FF021BB980F846
:104D10005C20FDF72DF90223216884F85D300B68D3
:104D2000E26823F04003B2F5E06F0B604FF0000340
:104D30002ED91846B2F5706F18BFA362236B2BB93A
:104D4000B2F5E06F8CBF022301232363A66863687A
:104D5000A56933432669334366693343E6693343C0
:104D6000266A3343A66A334305F4007633430B6067
:104D7000636A1A43636B2D0C1A4305F004052A433A
:104D80000243012300204A60206684F85D3070BD34
:104D90004FF48050D0E7012070BD2DE9F3411E464D
:104DA00090F85C30012B04460D46904600F0B1802F
:104DB000012380F85C30FDF7A1FB074694F85D0005
:104DC000C0B2012840F0A380002D5FD0B8F1000FE1
:104DD0005CD0032384F85D300020A3682066206443
:104DE000A4F83E80A4F84400A4F846002065E064DE
:104DF0002068A563B3F5004F08BF0368A4F83C80A2
:104E000004BF43F48043036003685B065EBF03682E
:104E100043F040030360E368B3F5E06F63683ED995
:104E200013B1B8F1010F07D135F8023BC360A56398
:104E3000E38F013B9BB2E387E38F9BB2A3B93A4672
:104E400031462046FFF736FF00285DD1A36833B90D
:104E500001932368DA6801929B680193019B206E9D
:104E6000003018BF012011E022689368980705D52B
:104E7000A36B33F8021BD160A363D9E7FDF73EFBB8
:104E8000C01BB042D8D3711CD6D00320012384F8B4
:104E90005D30002384F85C3002B0BDE8F08113B1CE
:104EA000B8F1010F13D1E38F9BB2012B06D935F86E
:104EB000023BC360A563E38F023B06E02B780373DC
:104EC000A36B0133A363E38F013B9BB2E387E38FC3
:104ED0009BB2002BB3D023689A6892070CD5E28F5F
:104EE000A06B92B2012A04D930F8022BDA60A063D9
:104EF000E1E702781A73E3E7FDF700FBC01B864287
:104F0000E5D8731CE3D0C0E7202323669EE7022088
:104F1000BCE70220C0E72DE9F8431E4690F85C305C
:104F2000089F012B04460D46914600F01581012390
:104F300080F85C30FDF7E2FA94F85D306168DBB22E
:104F4000012B80460AD0B1F5827F40F00381A06832
:104F5000002840F0FF80042B40F0FC80002D49D059
:104F6000B9F1000F46D0002E44D094F85D30E268CD
:104F70002068C4F84090042B1CBF052384F85D30E2
:104F800000232366B2F5E06FA4F84660E687E36489
:104F90002365A4F84460A563A687436801D8012E61
:104FA0002AD923F48053436003685B065EBF03681D
:104FB00043F040030360B2F5E06F56D909B1012E0A
:104FC00007D135F8023BC360E38FA563013B9BB279
:104FD000E3870125E38F9BB28BB9B4F846309BB2CF
:104FE0006BB9424639462046FFF764FE002834D0AC
:104FF00020232366012030E043F48053D3E7226866
:10500000936899070DD5E38F9BB253B14DB1A36B54
:1050100033F8021BD160A363E38F013B9BB2E387AC
:1050200000259368DB070FD5B4F846309BB25BB11F
:10503000236CD26823F8022B2364B4F84630013B7A
:105040009BB2A4F846300125FDF758FAA0EB080002
:105050008742BFD87E1CBDD00320012384F85D3079
:10506000002384F85C30BDE8F88309B1012E0BD130
:10507000E38F9BB2012B51D935F8023BC360E38F1C
:10508000A563023B9BB2E3870125E38F9BB223B963
:10509000B4F846309BB2002BA3D0226893689807DF
:1050A00011D5E38F9BB273B16DB1E38F9BB2012B2E
:1050B000A36B3BD933F8021BD160A363E38F023BA0
:1050C0009BB2E387002522689368D9071DD5B4F801
:1050D00046309BB2CBB1B4F846309BB2012B236C67
:1050E0002CD9D16823F8021B2364B4F84630023B64
:1050F0009BB2A4F84630B4F846309BB2012B03D8DB
:10510000536843F4805353600125FDF7F7F9A0EB92
:1051100008008742B9D87B1CB7D09DE72B78037372
:10512000A36B0133A363E38F013BABE71B781373DE
:10513000A36B0133A363E38F013BC1E7127B1A70BA
:10514000236C01332364B4F84630013B9BB2A4F8CE
:105150004630D9E7022080E70220BDE8F88300004E
:10516000036A23F001030362036A70B5446882692D
:105170000D6822F4803222F073022A438D6823F0F6
:1051800002032B431B4DA8420FD005F50065A84232
:105190000BD005F54065A84207D005F58065A8420B
:1051A00003D005F58065A8421ED1CD6823F0080321
:1051B0002B43104DA84223F004030FD005F50065E2
:1051C000A8420BD005F54065A84207D005F58065DB
:1051D000A84203D005F58065A84205D124F44075A6
:1051E0008E694C6934432C43446082614A6842634F
:1051F000036270BD002C0140036A23F480730362D4
:10520000036A70B54468C2690D6822F4803222F0E6
:1052100073022A438D6823F4007343EA0523164D75
:10522000A84203D005F50065A8420DD1CD6823F44E
:10523000006343EA0523104DA84223F480630ED097
:1052400005F50065A8420AD00C4DA84207D005F527
:105250008065A84203D005F58065A84206D124F4F4
:1052600040558E694C69344345EA04144460C26178
:105270004A68C263036270BD002C014000400140D7
:10528000036A23F480530362036A30B54468C26939
:105290000D6822F0807222F4E64242EA05228D680F
:1052A00023F4005343EA05330E4DA8420FD005F511
:1052B0000065A8420BD005F54065A84207D005F56A
:1052C0008065A84203D005F58065A84204D14D69E8
:1052D00024F4804444EA85144460C2614A6802644C
:1052E000036230BD002C0140036A23F48033036263
:1052F000036A30B54468426D0D6822F4803222F0B2
:1053000070022A438D6823F4003343EA05430F4DAE
:10531000A8420FD005F50065A8420BD005F5406501
:10532000A84207D005F58065A84203D005F5806541
:10533000A84204D14D6924F4803444EA0524446031
:1053400042654A688265036230BD00BF002C01409F
:10535000036A23F480130362036A30B54468426D24
:105360000D6822F0807222F4E04242EA05228D6844
:1053700023F4001343EA05530E4DA8420FD005F560
:105380000065A8420BD005F54065A84207D005F599
:105390008065A84203D005F58065A84204D14D6917
:1053A00024F4802444EA8524446042654A68C26546
:1053B000036230BD002C01400368DA6842F001024C
:1053C000DA609968064A0A40062A06D0B2F5803F9C
:1053D0001EBF1A6842F001021A600020704700BF29
:1053E00007000100704770477047704770470368B7
:1053F0001A69910710B504460FD5DA6892070CD5E3
:105400006FF002021A619B6901229907027700F08E
:105410008580FFF7E9FF0023237723681A69520785
:1054200010D5DA6850070DD56FF004021A619B6938
:10543000022213F4407F2277204675D0FFF7D4FF75
:105440000023237723681A6911070FD5DA6812073A
:105450000CD56FF008021A61DB6904229B072277E2
:10546000204667D0FFF7C0FF0023237723681A691F
:10547000D00610D5DA68D1060DD56FF010021A618A
:10548000DB69082213F4407F2277204658D0FFF7CB
:10549000ABFF0023237723681A69D20708D5DA689F
:1054A000D00705D56FF001021A612046FCF7C8FB52
:1054B00023681A69110608D5DA68120605D56FF057
:1054C00080021A61204600F0B4FA23681A69D005F8
:1054D00008D5DA68110605D56FF480721A61204686
:1054E00000F0A8FA23681A69520608D5DA6850064F
:1054F00005D56FF040021A612046FFF777FF236859
:105500001A69910622D5DA6892061FD56FF020023B
:1055100020461A61BDE8104000F08ABAFFF763FF29
:105520002046FFF762FF76E7FFF75DFF2046FFF7B3
:105530005CFF85E7FFF757FF2046FFF756FF93E72D
:10554000FFF751FF2046FFF750FFA2E710BD000014
:10555000304A0368904212D0B0F1804F0FD0A2F5CC
:10556000943290420BD002F58062904207D002F54F
:105570008062904203D002F59432904219D14A6879
:1055800023F070031343234A90421DD0B0F1804FA3
:105590001AD0A2F59432904216D002F58062904261
:1055A00012D002F5806290420ED002F59432904201
:1055B0000AD0194A904207D002F58062904203D087
:1055C00002F58062904203D1CA6823F4407313430A
:1055D0004A6923F08003134303608B68C3620B683E
:1055E00083620C4B98420FD003F5006398420BD0B6
:1055F00003F54063984207D003F58063984203D0D7
:1056000003F58063984201D10B6903630123436171
:10561000704700BF002C01400040014010B5044617
:10562000A0B190F83D3003F0FF021BB980F83C2098
:10563000FCF7D2FC022384F83D302068211DFFF7DF
:1056400087FF012384F83D30002010BD012010BDEC
:1056500010B50446A0B190F83D3003F0FF021BB92D
:1056600080F83C20FFF7BEFE022384F83D3020681E
:10567000211DFFF76DFF012384F83D30002010BD90
:10568000012010BD036A23F010030362036A70B5A2
:10569000446882690D6822F0807222F4E64242EA90
:1056A00005228D6823F0200343EA0513164DA84216
:1056B00003D005F50065A8420DD1CD6823F0800325
:1056C00043EA0513104DA84223F040030ED005F520
:1056D0000065A8420AD00D4DA84207D005F58065A7
:1056E000A84203D005F58065A84206D124F44065A0
:1056F0008E694C69344345EA8404446082614A6897
:105700008263036270BD00BF002C01400040014075
:1057100038B590F83C30012B04464FF0020010D011
:105720000123082A84F83C3084F83D0043D009D88E
:10573000FAB1042A2ED00123002084F83D3084F8E9
:105740003C0038BD102A47D0142A56D00C2AF2D17A
:105750002068FFF795FD23680969DA6942F4006261
:10576000DA61DA6922F48062DA61DA6942EA0122F6
:1057700030E02068FFF7F4FC236809699A6942F079
:1057800008029A619A6922F004029A619A690A43AE
:105790009A61D0E72068FFF775FF236809699A6965
:1057A00042F400629A619A6922F480629A619A696D
:1057B00042EA0122ECE72068FFF71EFD2368096931
:1057C000DA6942F00802DA61DA6922F00402DA6189
:1057D000DA690A43DA61AEE72068FFF785FD2368DE
:1057E00009695A6D42F008025A655A6D22F00402A6
:1057F0005A655A6D0A435A659DE72068FFF7A8FD70
:10580000236809695A6D42F400625A655A6D22F4A0
:1058100080625A655A6D42EA0122ECE710B584684D
:105820000A4324F47F4442EA03232343836010BDE8
:1058300090F83C30012B70B504464FF0020017D0B1
:1058400084F83D002068012384F83C308268414B95
:10585000134083600B68402B65D015D8102B0CD0FB
:1058600007D853B10123002084F83D3084F83C0070
:1058700070BD202B01D0302BF4D1826843F0070398
:1058800022F0700213431AE0602B34D019D8502B49
:10589000E8D14A68CE68016A056A25F0010505620B
:1058A000836921F00A0123F0F00343EA06130A4357
:1058B00083610262836823F0700343F057038360BF
:1058C000D0E7702B0CD0B3F5005FCBD1CB684A6822
:1058D0008968FFF7A3FF2268936843F4804308E0D8
:1058E000CB684A688968FFF799FF2268936843F09C
:1058F00077039360B6E74D68CE68016A21F0100126
:1059000001628269036A22F4704223F0A00343EA31
:10591000051342EA063282610362836823F0700352
:1059200043F06703CBE74A68CE68016A056A25F051
:1059300001050562836921F00A0123F0F00343EABF
:1059400006130A4383610262836823F0700343F005
:105950004703B4E78800FEFF036A01F01F0110B59A
:1059600001248C4023EA04030362036A8A401A4339
:10597000026210BD10B5044601220068FFF7ECFF7B
:105980002368134A93421DD002F50062934219D056
:1059900002F54062934215D002F58062934211D025
:1059A00002F5806293420DD099680A4A0A40062A9D
:1059B00006D0B2F5803F03D01A6842F001021A60A7
:1059C000002010BD5A6C42F400425A64ECE700BF5C
:1059D000002C01400700010090F83C30012B30B54D
:1059E0004FF002031FD00268104D80F83D30AA42EC
:1059F0005368946803D005F50065AA4203D14D6849
:105A000023F470032B430D68896823F070032B4344
:105A100024F08004536021430123916080F83D30DD
:105A2000002380F83C30184630BD00BF002C0140F8
:105A300070477047704700000268C169F8B50446B6
:105A4000836800691568034360690343BA480B43E0
:105A50002840034313605368E06823F44053034332
:105A60005360B64BA0699A421CBF236A18439368DF
:105A700023F4306303439360B14B9A4219D103F589
:105A80005843B04AD3F8883003F00303B1F5004F10
:105A9000D35C40F03881082B00F28F80DFE813F0F0
:105AA0001A01CA00F9008D0014018D008D008D00CF
:105AB0003600A54B9A4207D103F5E633A34AD3F843
:105AC000883003F00C03E1E7A14B9A4223D103F5A0
:105AD000E433D3F8883003F03003102B00F0F1806A
